{
  "contractName": "ToDo",
  "abi": [
    {
      "constant": true,
      "inputs": [
        {
          "internalType": "uint256",
          "name": "",
          "type": "uint256"
        }
      ],
      "name": "tasks",
      "outputs": [
        {
          "internalType": "string",
          "name": "description",
          "type": "string"
        },
        {
          "internalType": "string",
          "name": "user",
          "type": "string"
        },
        {
          "internalType": "bool",
          "name": "status",
          "type": "bool"
        }
      ],
      "payable": false,
      "stateMutability": "view",
      "type": "function"
    },
    {
      "constant": false,
      "inputs": [
        {
          "internalType": "string",
          "name": "_description",
          "type": "string"
        },
        {
          "internalType": "string",
          "name": "_user",
          "type": "string"
        }
      ],
      "name": "createTask",
      "outputs": [],
      "payable": false,
      "stateMutability": "nonpayable",
      "type": "function"
    },
    {
      "constant": false,
      "inputs": [
        {
          "internalType": "uint8",
          "name": "_id",
          "type": "uint8"
        }
      ],
      "name": "checkTask",
      "outputs": [],
      "payable": false,
      "stateMutability": "nonpayable",
      "type": "function"
    },
    {
      "constant": true,
      "inputs": [],
      "name": "getTasks",
      "outputs": [
        {
          "components": [
            {
              "internalType": "string",
              "name": "description",
              "type": "string"
            },
            {
              "internalType": "string",
              "name": "user",
              "type": "string"
            },
            {
              "internalType": "bool",
              "name": "status",
              "type": "bool"
            }
          ],
          "internalType": "struct ToDo.Task[]",
          "name": "",
          "type": "tuple[]"
        }
      ],
      "payable": false,
      "stateMutability": "view",
      "type": "function"
    }
  ],
  "bytecode": "0x608060405234801561001057600080fd5b50610a52806100206000396000f3fe608060405234801561001057600080fd5b506004361061004c5760003560e01c806304a87e3814610051578063292a45851461006f5780638d9776721461008b578063e65141e4146100bd575b600080fd5b6100596100d9565b6040516100669190610845565b60405180910390f35b61008960048036036100849190810190610617565b610297565b005b6100a560048036036100a09190810190610683565b610343565b6040516100b493929190610867565b60405180910390f35b6100d760048036036100d291908101906106ac565b6104b7565b005b60606000805480602002602001604051908101604052809291908181526020016000905b8282101561028e5783829060005260206000209060030201604051806060016040529081600082018054600181600116156101000203166002900480601f0160208091040260200160405190810160405280929190818152602001828054600181600116156101000203166002900480156101b95780601f1061018e576101008083540402835291602001916101b9565b820191906000526020600020905b81548152906001019060200180831161019c57829003601f168201915b50505050508152602001600182018054600181600116156101000203166002900480601f01602080910402602001604051908101604052809291908181526020018280546001816001161561010002031660029004801561025b5780601f106102305761010080835404028352916020019161025b565b820191906000526020600020905b81548152906001019060200180831161023e57829003601f168201915b505050505081526020016002820160009054906101000a900460ff161515151581525050815260200190600101906100fd565b50505050905090565b60006040518060600160405280848152602001838152602001600015158152509080600181540180825580915050906001820390600052602060002090600302016000909192909190915060008201518160000190805190602001906102fe9291906104f4565b50602082015181600101908051906020019061031b9291906104f4565b5060408201518160020160006101000a81548160ff0219169083151502179055505050505050565b6000818154811061035057fe5b9060005260206000209060030201600091509050806000018054600181600116156101000203166002900480601f0160208091040260200160405190810160405280929190818152602001828054600181600116156101000203166002900480156103fc5780601f106103d1576101008083540402835291602001916103fc565b820191906000526020600020905b8154815290600101906020018083116103df57829003601f168201915b505050505090806001018054600181600116156101000203166002900480601f01602080910402602001604051908101604052809291908181526020018280546001816001161561010002031660029004801561049a5780601f1061046f5761010080835404028352916020019161049a565b820191906000526020600020905b81548152906001019060200180831161047d57829003601f168201915b5050505050908060020160009054906101000a900460ff16905083565b600160008260ff16815481106104c957fe5b906000526020600020906003020160020160006101000a81548160ff02191690831515021790555050565b828054600181600116156101000203166002900490600052602060002090601f016020900481019282601f1061053557805160ff1916838001178555610563565b82800160010185558215610563579182015b82811115610562578251825591602001919060010190610547565b5b5090506105709190610574565b5090565b61059691905b8082111561059257600081600090555060010161057a565b5090565b90565b600082601f8301126105aa57600080fd5b81356105bd6105b8826108d9565b6108ac565b915080825260208301602083018583830111156105d957600080fd5b6105e483828461098e565b50505092915050565b6000813590506105fc816109e1565b92915050565b600081359050610611816109f8565b92915050565b6000806040838503121561062a57600080fd5b600083013567ffffffffffffffff81111561064457600080fd5b61065085828601610599565b925050602083013567ffffffffffffffff81111561066d57600080fd5b61067985828601610599565b9150509250929050565b60006020828403121561069557600080fd5b60006106a3848285016105ed565b91505092915050565b6000602082840312156106be57600080fd5b60006106cc84828501610602565b91505092915050565b60006106e183836107ee565b905092915050565b60006106f482610915565b6106fe8185610938565b93508360208202850161071085610905565b8060005b8581101561074c578484038952815161072d85826106d5565b94506107388361092b565b925060208a01995050600181019050610714565b50829750879550505050505092915050565b6107678161096b565b82525050565b6107768161096b565b82525050565b600061078782610920565b6107918185610949565b93506107a181856020860161099d565b6107aa816109d0565b840191505092915050565b60006107c082610920565b6107ca818561095a565b93506107da81856020860161099d565b6107e3816109d0565b840191505092915050565b6000606083016000830151848203600086015261080b828261077c565b91505060208301518482036020860152610825828261077c565b915050604083015161083a604086018261075e565b508091505092915050565b6000602082019050818103600083015261085f81846106e9565b905092915050565b6000606082019050818103600083015261088181866107b5565b9050818103602083015261089581856107b5565b90506108a4604083018461076d565b949350505050565b6000604051905081810181811067ffffffffffffffff821117156108cf57600080fd5b8060405250919050565b600067ffffffffffffffff8211156108f057600080fd5b601f19601f8301169050602081019050919050565b6000819050602082019050919050565b600081519050919050565b600081519050919050565b6000602082019050919050565b600082825260208201905092915050565b600082825260208201905092915050565b600082825260208201905092915050565b60008115159050919050565b6000819050919050565b600060ff82169050919050565b82818337600083830152505050565b60005b838110156109bb5780820151818401526020810190506109a0565b838111156109ca576000848401525b50505050565b6000601f19601f8301169050919050565b6109ea81610977565b81146109f557600080fd5b50565b610a0181610981565b8114610a0c57600080fd5b5056fea365627a7a7231582022d181cebb5b191d2bd0af2082cec1b252af52bdbb2b661375161afef9b560b36c6578706572696d656e74616cf564736f6c63430005100040",
  "source": "pragma experimental ABIEncoderV2;\n\ncontract ToDo {\n  struct Task {\n    string description;\n    string user;\n    bool status;\n  }\n\n  Task[] public tasks;\n\n  function createTask(string memory _description, string memory _user) public {\n    tasks.push(Task(_description, _user, false));\n  }\n\n  function checkTask(uint8 _id) public {\n    tasks[_id].status = true;\n  }\n  \n  function getTasks() public view returns(Task[] memory) {\n    return tasks;\n  }\n}",
  "sourcePath": "/home/hayek/proyectos_personales/todo_list_defi/src/contracts/ToDo.sol",
  "compiler": {
    "name": "solc",
    "version": "0.5.16+commit.9c3226ce.Emscripten.clang"
  },
  "schemaVersion": "3.4.4",
  "updatedAt": "2022-04-05T19:51:16.946Z",
  "networkType": "ethereum",
  "devdoc": {
    "methods": {}
  },
  "userdoc": {
    "methods": {}
  }
}