{
  "contractName": "ToDo",
  "abi": [
    {
      "constant": true,
      "inputs": [
        {
          "internalType": "uint256",
          "name": "",
          "type": "uint256"
        }
      ],
      "name": "tasks",
      "outputs": [
        {
          "internalType": "string",
          "name": "description",
          "type": "string"
        },
        {
          "internalType": "string",
          "name": "user",
          "type": "string"
        },
        {
          "internalType": "bool",
          "name": "status",
          "type": "bool"
        },
        {
          "internalType": "address",
          "name": "owner",
          "type": "address"
        }
      ],
      "payable": false,
      "stateMutability": "view",
      "type": "function"
    },
    {
      "constant": false,
      "inputs": [
        {
          "internalType": "string",
          "name": "_description",
          "type": "string"
        },
        {
          "internalType": "string",
          "name": "_user",
          "type": "string"
        }
      ],
      "name": "createTask",
      "outputs": [],
      "payable": false,
      "stateMutability": "nonpayable",
      "type": "function"
    },
    {
      "constant": false,
      "inputs": [
        {
          "internalType": "uint8",
          "name": "_id",
          "type": "uint8"
        }
      ],
      "name": "checkTask",
      "outputs": [],
      "payable": false,
      "stateMutability": "nonpayable",
      "type": "function"
    },
    {
      "constant": false,
      "inputs": [],
      "name": "cleanTasks",
      "outputs": [],
      "payable": false,
      "stateMutability": "nonpayable",
      "type": "function"
    },
    {
      "constant": true,
      "inputs": [],
      "name": "getTasks",
      "outputs": [
        {
          "components": [
            {
              "internalType": "string",
              "name": "description",
              "type": "string"
            },
            {
              "internalType": "string",
              "name": "user",
              "type": "string"
            },
            {
              "internalType": "bool",
              "name": "status",
              "type": "bool"
            },
            {
              "internalType": "address",
              "name": "owner",
              "type": "address"
            }
          ],
          "internalType": "struct ToDo.Task[]",
          "name": "",
          "type": "tuple[]"
        }
      ],
      "payable": false,
      "stateMutability": "view",
      "type": "function"
    },
    {
      "constant": true,
      "inputs": [
        {
          "internalType": "address",
          "name": "owner",
          "type": "address"
        }
      ],
      "name": "getTasksByOwner",
      "outputs": [
        {
          "components": [
            {
              "internalType": "string",
              "name": "description",
              "type": "string"
            },
            {
              "internalType": "string",
              "name": "user",
              "type": "string"
            },
            {
              "internalType": "bool",
              "name": "status",
              "type": "bool"
            },
            {
              "internalType": "address",
              "name": "owner",
              "type": "address"
            }
          ],
          "internalType": "struct ToDo.Task[]",
          "name": "",
          "type": "tuple[]"
        }
      ],
      "payable": false,
      "stateMutability": "view",
      "type": "function"
    }
  ],
  "bytecode": "0x608060405234801561001057600080fd5b506110d8806100206000396000f3fe608060405234801561001057600080fd5b50600436106100625760003560e01c806304a87e3814610067578063292a4585146100855780632e99a9e5146100a15780638d977672146100ab578063e65141e4146100de578063f0f39ce4146100fa575b600080fd5b61006f61012a565b60405161007c9190610e74565b60405180910390f35b61009f600480360361009a9190810190610c15565b61033e565b005b6100a961044d565b005b6100c560048036036100c09190810190610c81565b61045c565b6040516100d59493929190610e96565b60405180910390f35b6100f860048036036100f39190810190610caa565b6105f6565b005b610114600480360361010f9190810190610bec565b6106ac565b6040516101219190610e74565b60405180910390f35b60606000805480602002602001604051908101604052809291908181526020016000905b828210156103355783829060005260206000209060030201604051806080016040529081600082018054600181600116156101000203166002900480601f01602080910402602001604051908101604052809291908181526020018280546001816001161561010002031660029004801561020a5780601f106101df5761010080835404028352916020019161020a565b820191906000526020600020905b8154815290600101906020018083116101ed57829003601f168201915b50505050508152602001600182018054600181600116156101000203166002900480601f0160208091040260200160405190810160405280929190818152602001828054600181600116156101000203166002900480156102ac5780601f10610281576101008083540402835291602001916102ac565b820191906000526020600020905b81548152906001019060200180831161028f57829003601f168201915b505050505081526020016002820160009054906101000a900460ff161515151581526020016002820160019054906101000a900473ffffffffffffffffffffffffffffffffffffffff1673ffffffffffffffffffffffffffffffffffffffff1673ffffffffffffffffffffffffffffffffffffffff16815250508152602001906001019061014e565b50505050905090565b600060405180608001604052808481526020018381526020016000151581526020013373ffffffffffffffffffffffffffffffffffffffff168152509080600181540180825580915050906001820390600052602060002090600302016000909192909190915060008201518160000190805190602001906103c192919061098e565b5060208201518160010190805190602001906103de92919061098e565b5060408201518160020160006101000a81548160ff02191690831515021790555060608201518160020160016101000a81548173ffffffffffffffffffffffffffffffffffffffff021916908373ffffffffffffffffffffffffffffffffffffffff1602179055505050505050565b60008061045a9190610a0e565b565b6000818154811061046957fe5b9060005260206000209060030201600091509050806000018054600181600116156101000203166002900480601f0160208091040260200160405190810160405280929190818152602001828054600181600116156101000203166002900480156105155780601f106104ea57610100808354040283529160200191610515565b820191906000526020600020905b8154815290600101906020018083116104f857829003601f168201915b505050505090806001018054600181600116156101000203166002900480601f0160208091040260200160405190810160405280929190818152602001828054600181600116156101000203166002900480156105b35780601f10610588576101008083540402835291602001916105b3565b820191906000526020600020905b81548152906001019060200180831161059657829003601f168201915b5050505050908060020160009054906101000a900460ff16908060020160019054906101000a900473ffffffffffffffffffffffffffffffffffffffff16905084565b60008160ff168154811061060657fe5b906000526020600020906003020160020160019054906101000a900473ffffffffffffffffffffffffffffffffffffffff1673ffffffffffffffffffffffffffffffffffffffff163373ffffffffffffffffffffffffffffffffffffffff161461066f57600080fd5b600160008260ff168154811061068157fe5b906000526020600020906003020160020160006101000a81548160ff02191690831515021790555050565b6060806000805490506040519080825280602002602001820160405280156106ee57816020015b6106db610a32565b8152602001906001900390816106d35790505b509050600080905060008090505b600080549050811015610983576000818154811061071657fe5b906000526020600020906003020160020160019054906101000a900473ffffffffffffffffffffffffffffffffffffffff1673ffffffffffffffffffffffffffffffffffffffff168573ffffffffffffffffffffffffffffffffffffffff161415610976576000818154811061078857fe5b9060005260206000209060030201604051806080016040529081600082018054600181600116156101000203166002900480601f01602080910402602001604051908101604052809291908181526020018280546001816001161561010002031660029004801561083a5780601f1061080f5761010080835404028352916020019161083a565b820191906000526020600020905b81548152906001019060200180831161081d57829003601f168201915b50505050508152602001600182018054600181600116156101000203166002900480601f0160208091040260200160405190810160405280929190818152602001828054600181600116156101000203166002900480156108dc5780601f106108b1576101008083540402835291602001916108dc565b820191906000526020600020905b8154815290600101906020018083116108bf57829003601f168201915b505050505081526020016002820160009054906101000a900460ff161515151581526020016002820160019054906101000a900473ffffffffffffffffffffffffffffffffffffffff1673ffffffffffffffffffffffffffffffffffffffff1673ffffffffffffffffffffffffffffffffffffffff168152505083838151811061096257fe5b602002602001018190525081806001019250505b80806001019150506106fc565b508192505050919050565b828054600181600116156101000203166002900490600052602060002090601f016020900481019282601f106109cf57805160ff19168380011785556109fd565b828001600101855582156109fd579182015b828111156109fc5782518255916020019190600101906109e1565b5b509050610a0a9190610a72565b5090565b5080546000825560030290600052602060002090810190610a2f9190610a97565b50565b60405180608001604052806060815260200160608152602001600015158152602001600073ffffffffffffffffffffffffffffffffffffffff1681525090565b610a9491905b80821115610a90576000816000905550600101610a78565b5090565b90565b610b0e91905b80821115610b0a5760008082016000610ab69190610b11565b600182016000610ac69190610b11565b6002820160006101000a81549060ff02191690556002820160016101000a81549073ffffffffffffffffffffffffffffffffffffffff021916905550600301610a9d565b5090565b90565b50805460018160011615610100020316600290046000825580601f10610b375750610b56565b601f016020900490600052602060002090810190610b559190610a72565b5b50565b600081359050610b6881611050565b92915050565b600082601f830112610b7f57600080fd5b8135610b92610b8d82610f16565b610ee9565b91508082526020830160208301858383011115610bae57600080fd5b610bb9838284610ffd565b50505092915050565b600081359050610bd181611067565b92915050565b600081359050610be68161107e565b92915050565b600060208284031215610bfe57600080fd5b6000610c0c84828501610b59565b91505092915050565b60008060408385031215610c2857600080fd5b600083013567ffffffffffffffff811115610c4257600080fd5b610c4e85828601610b6e565b925050602083013567ffffffffffffffff811115610c6b57600080fd5b610c7785828601610b6e565b9150509250929050565b600060208284031215610c9357600080fd5b6000610ca184828501610bc2565b91505092915050565b600060208284031215610cbc57600080fd5b6000610cca84828501610bd7565b91505092915050565b6000610cdf8383610e0a565b905092915050565b610cf081610fa8565b82525050565b610cff81610fa8565b82525050565b6000610d1082610f52565b610d1a8185610f75565b935083602082028501610d2c85610f42565b8060005b85811015610d685784840389528151610d498582610cd3565b9450610d5483610f68565b925060208a01995050600181019050610d30565b50829750879550505050505092915050565b610d8381610fba565b82525050565b610d9281610fba565b82525050565b6000610da382610f5d565b610dad8185610f86565b9350610dbd81856020860161100c565b610dc68161103f565b840191505092915050565b6000610ddc82610f5d565b610de68185610f97565b9350610df681856020860161100c565b610dff8161103f565b840191505092915050565b60006080830160008301518482036000860152610e278282610d98565b91505060208301518482036020860152610e418282610d98565b9150506040830151610e566040860182610d7a565b506060830151610e696060860182610ce7565b508091505092915050565b60006020820190508181036000830152610e8e8184610d05565b905092915050565b60006080820190508181036000830152610eb08187610dd1565b90508181036020830152610ec48186610dd1565b9050610ed36040830185610d89565b610ee06060830184610cf6565b95945050505050565b6000604051905081810181811067ffffffffffffffff82111715610f0c57600080fd5b8060405250919050565b600067ffffffffffffffff821115610f2d57600080fd5b601f19601f8301169050602081019050919050565b6000819050602082019050919050565b600081519050919050565b600081519050919050565b6000602082019050919050565b600082825260208201905092915050565b600082825260208201905092915050565b600082825260208201905092915050565b6000610fb382610fc6565b9050919050565b60008115159050919050565b600073ffffffffffffffffffffffffffffffffffffffff82169050919050565b6000819050919050565b600060ff82169050919050565b82818337600083830152505050565b60005b8381101561102a57808201518184015260208101905061100f565b83811115611039576000848401525b50505050565b6000601f19601f8301169050919050565b61105981610fa8565b811461106457600080fd5b50565b61107081610fe6565b811461107b57600080fd5b50565b61108781610ff0565b811461109257600080fd5b5056fea365627a7a72315820e138965194318e20945ccd96b6b9475c5876e2c4fb2d9346fd5b2d04daf7478e6c6578706572696d656e74616cf564736f6c63430005100040",
  "source": "pragma experimental ABIEncoderV2;\n\ncontract ToDo {\n  struct Task {\n    string description;\n    string user;\n    bool status;\n    address owner;\n  }\n\n  Task[] public tasks;\n\n  function createTask(string memory _description, string memory _user) public {\n    tasks.push(Task(_description, _user, false, msg.sender));\n  }\n\n  function checkTask(uint8 _id) public {\n    require (msg.sender == tasks[_id].owner);\n    tasks[_id].status = true;\n  }\n\n  function cleanTasks() public {\n    delete tasks;\n  }\n  \n  function getTasks() public view returns(Task[] memory) {\n    return tasks;\n  }\n\n  function getTasksByOwner(address owner) external view returns(Task[] memory) {\n    Task[] memory result = new Task[](tasks.length);\n    uint counter = 0;\n    for (uint i = 0; i < tasks.length; i++) {\n      if (owner == tasks[i].owner) {\n        result[counter] = tasks[i];\n        counter++;\n      }\n    }\n\n    return result;\n  }\n\n  \n}",
  "sourcePath": "/home/hayek/proyectos_personales/todo_list_defi/src/contracts/ToDo.sol",
  "compiler": {
    "name": "solc",
    "version": "0.5.16+commit.9c3226ce.Emscripten.clang"
  },
  "schemaVersion": "3.4.4",
  "updatedAt": "2022-04-08T20:37:58.346Z",
  "networkType": "ethereum",
  "devdoc": {
    "methods": {}
  },
  "userdoc": {
    "methods": {}
  }
}