{
  "contractName": "ToDo",
  "abi": [
    {
      "constant": true,
      "inputs": [
        {
          "internalType": "uint256",
          "name": "",
          "type": "uint256"
        }
      ],
      "name": "tasks",
      "outputs": [
        {
          "internalType": "string",
          "name": "description",
          "type": "string"
        },
        {
          "internalType": "string",
          "name": "user",
          "type": "string"
        },
        {
          "internalType": "bool",
          "name": "status",
          "type": "bool"
        },
        {
          "internalType": "address",
          "name": "owner",
          "type": "address"
        }
      ],
      "payable": false,
      "stateMutability": "view",
      "type": "function"
    },
    {
      "constant": false,
      "inputs": [
        {
          "internalType": "string",
          "name": "_description",
          "type": "string"
        },
        {
          "internalType": "string",
          "name": "_user",
          "type": "string"
        }
      ],
      "name": "createTask",
      "outputs": [],
      "payable": false,
      "stateMutability": "nonpayable",
      "type": "function"
    },
    {
      "constant": false,
      "inputs": [
        {
          "internalType": "uint8",
          "name": "_id",
          "type": "uint8"
        }
      ],
      "name": "checkTask",
      "outputs": [],
      "payable": false,
      "stateMutability": "nonpayable",
      "type": "function"
    },
    {
      "constant": false,
      "inputs": [],
      "name": "cleanTasks",
      "outputs": [],
      "payable": false,
      "stateMutability": "nonpayable",
      "type": "function"
    },
    {
      "constant": true,
      "inputs": [],
      "name": "getTasks",
      "outputs": [
        {
          "components": [
            {
              "internalType": "string",
              "name": "description",
              "type": "string"
            },
            {
              "internalType": "string",
              "name": "user",
              "type": "string"
            },
            {
              "internalType": "bool",
              "name": "status",
              "type": "bool"
            },
            {
              "internalType": "address",
              "name": "owner",
              "type": "address"
            }
          ],
          "internalType": "struct ToDo.Task[]",
          "name": "",
          "type": "tuple[]"
        }
      ],
      "payable": false,
      "stateMutability": "view",
      "type": "function"
    },
    {
      "constant": true,
      "inputs": [
        {
          "internalType": "address",
          "name": "owner",
          "type": "address"
        }
      ],
      "name": "getTasksByOwner",
      "outputs": [
        {
          "components": [
            {
              "internalType": "string",
              "name": "description",
              "type": "string"
            },
            {
              "internalType": "string",
              "name": "user",
              "type": "string"
            },
            {
              "internalType": "bool",
              "name": "status",
              "type": "bool"
            },
            {
              "internalType": "address",
              "name": "owner",
              "type": "address"
            }
          ],
          "internalType": "struct ToDo.Task[]",
          "name": "",
          "type": "tuple[]"
        }
      ],
      "payable": false,
      "stateMutability": "view",
      "type": "function"
    }
  ],
  "bytecode": "0x608060405234801561001057600080fd5b5061105f806100206000396000f3fe608060405234801561001057600080fd5b50600436106100625760003560e01c806304a87e3814610067578063292a4585146100855780632e99a9e5146100a15780638d977672146100ab578063e65141e4146100de578063f0f39ce4146100fa575b600080fd5b61006f61012a565b60405161007c9190610dfb565b60405180910390f35b61009f600480360361009a9190810190610b9c565b61033e565b005b6100a961044d565b005b6100c560048036036100c09190810190610c08565b61045c565b6040516100d59493929190610e1d565b60405180910390f35b6100f860048036036100f39190810190610c31565b6105f6565b005b610114600480360361010f9190810190610b73565b610633565b6040516101219190610dfb565b60405180910390f35b60606000805480602002602001604051908101604052809291908181526020016000905b828210156103355783829060005260206000209060030201604051806080016040529081600082018054600181600116156101000203166002900480601f01602080910402602001604051908101604052809291908181526020018280546001816001161561010002031660029004801561020a5780601f106101df5761010080835404028352916020019161020a565b820191906000526020600020905b8154815290600101906020018083116101ed57829003601f168201915b50505050508152602001600182018054600181600116156101000203166002900480601f0160208091040260200160405190810160405280929190818152602001828054600181600116156101000203166002900480156102ac5780601f10610281576101008083540402835291602001916102ac565b820191906000526020600020905b81548152906001019060200180831161028f57829003601f168201915b505050505081526020016002820160009054906101000a900460ff161515151581526020016002820160019054906101000a900473ffffffffffffffffffffffffffffffffffffffff1673ffffffffffffffffffffffffffffffffffffffff1673ffffffffffffffffffffffffffffffffffffffff16815250508152602001906001019061014e565b50505050905090565b600060405180608001604052808481526020018381526020016000151581526020013373ffffffffffffffffffffffffffffffffffffffff168152509080600181540180825580915050906001820390600052602060002090600302016000909192909190915060008201518160000190805190602001906103c1929190610915565b5060208201518160010190805190602001906103de929190610915565b5060408201518160020160006101000a81548160ff02191690831515021790555060608201518160020160016101000a81548173ffffffffffffffffffffffffffffffffffffffff021916908373ffffffffffffffffffffffffffffffffffffffff1602179055505050505050565b60008061045a9190610995565b565b6000818154811061046957fe5b9060005260206000209060030201600091509050806000018054600181600116156101000203166002900480601f0160208091040260200160405190810160405280929190818152602001828054600181600116156101000203166002900480156105155780601f106104ea57610100808354040283529160200191610515565b820191906000526020600020905b8154815290600101906020018083116104f857829003601f168201915b505050505090806001018054600181600116156101000203166002900480601f0160208091040260200160405190810160405280929190818152602001828054600181600116156101000203166002900480156105b35780601f10610588576101008083540402835291602001916105b3565b820191906000526020600020905b81548152906001019060200180831161059657829003601f168201915b5050505050908060020160009054906101000a900460ff16908060020160019054906101000a900473ffffffffffffffffffffffffffffffffffffffff16905084565b600160008260ff168154811061060857fe5b906000526020600020906003020160020160006101000a81548160ff02191690831515021790555050565b60608060008054905060405190808252806020026020018201604052801561067557816020015b6106626109b9565b81526020019060019003908161065a5790505b509050600080905060008090505b60008054905081101561090a576000818154811061069d57fe5b906000526020600020906003020160020160019054906101000a900473ffffffffffffffffffffffffffffffffffffffff1673ffffffffffffffffffffffffffffffffffffffff168573ffffffffffffffffffffffffffffffffffffffff1614156108fd576000818154811061070f57fe5b9060005260206000209060030201604051806080016040529081600082018054600181600116156101000203166002900480601f0160208091040260200160405190810160405280929190818152602001828054600181600116156101000203166002900480156107c15780601f10610796576101008083540402835291602001916107c1565b820191906000526020600020905b8154815290600101906020018083116107a457829003601f168201915b50505050508152602001600182018054600181600116156101000203166002900480601f0160208091040260200160405190810160405280929190818152602001828054600181600116156101000203166002900480156108635780601f1061083857610100808354040283529160200191610863565b820191906000526020600020905b81548152906001019060200180831161084657829003601f168201915b505050505081526020016002820160009054906101000a900460ff161515151581526020016002820160019054906101000a900473ffffffffffffffffffffffffffffffffffffffff1673ffffffffffffffffffffffffffffffffffffffff1673ffffffffffffffffffffffffffffffffffffffff16815250508383815181106108e957fe5b602002602001018190525081806001019250505b8080600101915050610683565b508192505050919050565b828054600181600116156101000203166002900490600052602060002090601f016020900481019282601f1061095657805160ff1916838001178555610984565b82800160010185558215610984579182015b82811115610983578251825591602001919060010190610968565b5b50905061099191906109f9565b5090565b50805460008255600302906000526020600020908101906109b69190610a1e565b50565b60405180608001604052806060815260200160608152602001600015158152602001600073ffffffffffffffffffffffffffffffffffffffff1681525090565b610a1b91905b80821115610a175760008160009055506001016109ff565b5090565b90565b610a9591905b80821115610a915760008082016000610a3d9190610a98565b600182016000610a4d9190610a98565b6002820160006101000a81549060ff02191690556002820160016101000a81549073ffffffffffffffffffffffffffffffffffffffff021916905550600301610a24565b5090565b90565b50805460018160011615610100020316600290046000825580601f10610abe5750610add565b601f016020900490600052602060002090810190610adc91906109f9565b5b50565b600081359050610aef81610fd7565b92915050565b600082601f830112610b0657600080fd5b8135610b19610b1482610e9d565b610e70565b91508082526020830160208301858383011115610b3557600080fd5b610b40838284610f84565b50505092915050565b600081359050610b5881610fee565b92915050565b600081359050610b6d81611005565b92915050565b600060208284031215610b8557600080fd5b6000610b9384828501610ae0565b91505092915050565b60008060408385031215610baf57600080fd5b600083013567ffffffffffffffff811115610bc957600080fd5b610bd585828601610af5565b925050602083013567ffffffffffffffff811115610bf257600080fd5b610bfe85828601610af5565b9150509250929050565b600060208284031215610c1a57600080fd5b6000610c2884828501610b49565b91505092915050565b600060208284031215610c4357600080fd5b6000610c5184828501610b5e565b91505092915050565b6000610c668383610d91565b905092915050565b610c7781610f2f565b82525050565b610c8681610f2f565b82525050565b6000610c9782610ed9565b610ca18185610efc565b935083602082028501610cb385610ec9565b8060005b85811015610cef5784840389528151610cd08582610c5a565b9450610cdb83610eef565b925060208a01995050600181019050610cb7565b50829750879550505050505092915050565b610d0a81610f41565b82525050565b610d1981610f41565b82525050565b6000610d2a82610ee4565b610d348185610f0d565b9350610d44818560208601610f93565b610d4d81610fc6565b840191505092915050565b6000610d6382610ee4565b610d6d8185610f1e565b9350610d7d818560208601610f93565b610d8681610fc6565b840191505092915050565b60006080830160008301518482036000860152610dae8282610d1f565b91505060208301518482036020860152610dc88282610d1f565b9150506040830151610ddd6040860182610d01565b506060830151610df06060860182610c6e565b508091505092915050565b60006020820190508181036000830152610e158184610c8c565b905092915050565b60006080820190508181036000830152610e378187610d58565b90508181036020830152610e4b8186610d58565b9050610e5a6040830185610d10565b610e676060830184610c7d565b95945050505050565b6000604051905081810181811067ffffffffffffffff82111715610e9357600080fd5b8060405250919050565b600067ffffffffffffffff821115610eb457600080fd5b601f19601f8301169050602081019050919050565b6000819050602082019050919050565b600081519050919050565b600081519050919050565b6000602082019050919050565b600082825260208201905092915050565b600082825260208201905092915050565b600082825260208201905092915050565b6000610f3a82610f4d565b9050919050565b60008115159050919050565b600073ffffffffffffffffffffffffffffffffffffffff82169050919050565b6000819050919050565b600060ff82169050919050565b82818337600083830152505050565b60005b83811015610fb1578082015181840152602081019050610f96565b83811115610fc0576000848401525b50505050565b6000601f19601f8301169050919050565b610fe081610f2f565b8114610feb57600080fd5b50565b610ff781610f6d565b811461100257600080fd5b50565b61100e81610f77565b811461101957600080fd5b5056fea365627a7a723158207b5cb3ef59df70a3b9d47993b9934dce1562861c5e5905ee24835da914cd9dc26c6578706572696d656e74616cf564736f6c63430005100040",
  "source": "pragma experimental ABIEncoderV2;\n\ncontract ToDo {\n  struct Task {\n    string description;\n    string user;\n    bool status;\n    address owner;\n  }\n\n  Task[] public tasks;\n\n  function createTask(string memory _description, string memory _user) public {\n    tasks.push(Task(_description, _user, false, msg.sender));\n  }\n\n  function checkTask(uint8 _id) public {\n    tasks[_id].status = true;\n  }\n\n  function cleanTasks() public {\n    delete tasks;\n  }\n  \n  function getTasks() public view returns(Task[] memory) {\n    return tasks;\n  }\n\n  function getTasksByOwner(address owner) external view returns(Task[] memory) {\n    Task[] memory result = new Task[](tasks.length);\n    uint counter = 0;\n    for (uint i = 0; i < tasks.length; i++) {\n      if (owner == tasks[i].owner) {\n        result[counter] = tasks[i];\n        counter++;\n      }\n    }\n\n    return result;\n  }\n\n  \n}",
  "sourcePath": "/home/hayek/proyectos_personales/todo_list_defi/src/contracts/ToDo.sol",
  "compiler": {
    "name": "solc",
    "version": "0.5.16+commit.9c3226ce.Emscripten.clang"
  },
  "schemaVersion": "3.4.4",
  "updatedAt": "2022-04-06T22:35:43.259Z",
  "networkType": "ethereum",
  "devdoc": {
    "methods": {}
  },
  "userdoc": {
    "methods": {}
  }
}