{
  "contractName": "ToDo",
  "abi": [
    {
      "anonymous": false,
      "inputs": [
        {
          "indexed": true,
          "internalType": "address",
          "name": "previousOwner",
          "type": "address"
        },
        {
          "indexed": true,
          "internalType": "address",
          "name": "newOwner",
          "type": "address"
        }
      ],
      "name": "OwnershipTransferred",
      "type": "event"
    },
    {
      "inputs": [],
      "name": "isOwner",
      "outputs": [
        {
          "internalType": "bool",
          "name": "",
          "type": "bool"
        }
      ],
      "stateMutability": "view",
      "type": "function",
      "constant": true
    },
    {
      "inputs": [],
      "name": "owner",
      "outputs": [
        {
          "internalType": "address",
          "name": "",
          "type": "address"
        }
      ],
      "stateMutability": "view",
      "type": "function",
      "constant": true
    },
    {
      "inputs": [],
      "name": "renounceOwnership",
      "outputs": [],
      "stateMutability": "nonpayable",
      "type": "function"
    },
    {
      "inputs": [
        {
          "internalType": "uint256",
          "name": "",
          "type": "uint256"
        }
      ],
      "name": "tasks",
      "outputs": [
        {
          "internalType": "string",
          "name": "description",
          "type": "string"
        },
        {
          "internalType": "string",
          "name": "user",
          "type": "string"
        },
        {
          "internalType": "bool",
          "name": "status",
          "type": "bool"
        },
        {
          "internalType": "address",
          "name": "owner",
          "type": "address"
        }
      ],
      "stateMutability": "view",
      "type": "function",
      "constant": true
    },
    {
      "inputs": [
        {
          "internalType": "address",
          "name": "newOwner",
          "type": "address"
        }
      ],
      "name": "transferOwnership",
      "outputs": [],
      "stateMutability": "nonpayable",
      "type": "function"
    },
    {
      "inputs": [
        {
          "internalType": "string",
          "name": "_description",
          "type": "string"
        },
        {
          "internalType": "string",
          "name": "_user",
          "type": "string"
        }
      ],
      "name": "createTask",
      "outputs": [],
      "stateMutability": "nonpayable",
      "type": "function"
    },
    {
      "inputs": [
        {
          "internalType": "uint8",
          "name": "_id",
          "type": "uint8"
        }
      ],
      "name": "checkTask",
      "outputs": [],
      "stateMutability": "nonpayable",
      "type": "function"
    },
    {
      "inputs": [],
      "name": "cleanTasks",
      "outputs": [],
      "stateMutability": "nonpayable",
      "type": "function"
    },
    {
      "inputs": [],
      "name": "getTasks",
      "outputs": [
        {
          "components": [
            {
              "internalType": "string",
              "name": "description",
              "type": "string"
            },
            {
              "internalType": "string",
              "name": "user",
              "type": "string"
            },
            {
              "internalType": "bool",
              "name": "status",
              "type": "bool"
            },
            {
              "internalType": "address",
              "name": "owner",
              "type": "address"
            }
          ],
          "internalType": "struct ToDo.Task[]",
          "name": "",
          "type": "tuple[]"
        }
      ],
      "stateMutability": "view",
      "type": "function",
      "constant": true
    },
    {
      "inputs": [
        {
          "internalType": "address",
          "name": "owner",
          "type": "address"
        }
      ],
      "name": "getTasksByOwner",
      "outputs": [
        {
          "components": [
            {
              "internalType": "string",
              "name": "description",
              "type": "string"
            },
            {
              "internalType": "string",
              "name": "user",
              "type": "string"
            },
            {
              "internalType": "bool",
              "name": "status",
              "type": "bool"
            },
            {
              "internalType": "address",
              "name": "owner",
              "type": "address"
            }
          ],
          "internalType": "struct ToDo.Task[]",
          "name": "",
          "type": "tuple[]"
        }
      ],
      "stateMutability": "view",
      "type": "function",
      "constant": true
    }
  ],
  "bytecode": "0x608060405234801561001057600080fd5b50336000806101000a81548173ffffffffffffffffffffffffffffffffffffffff021916908373ffffffffffffffffffffffffffffffffffffffff16021790555060008054906101000a900473ffffffffffffffffffffffffffffffffffffffff1673ffffffffffffffffffffffffffffffffffffffff16600073ffffffffffffffffffffffffffffffffffffffff167f8be0079c531659141344cd1fd0a4f28419497f9722a3daafe3b4186f6b6457e060405160405180910390a361160e806100db6000396000f3fe608060405234801561001057600080fd5b506004361061009e5760003560e01c80638da5cb5b116100665780638da5cb5b146101245780638f32d59b14610142578063e65141e414610160578063f0f39ce41461017c578063f2fde38b146101ac5761009e565b806304a87e38146100a3578063292a4585146100c15780632e99a9e5146100dd578063715018a6146100e75780638d977672146100f1575b600080fd5b6100ab6101c8565b6040516100b891906110dc565b60405180910390f35b6100db60048036038101906100d69190611247565b6103bc565b005b6100e56104c8565b005b6100ef6104e9565b005b61010b600480360381019061010691906112f5565b6105b8565b60405161011b949392919061138a565b60405180910390f35b61012c610735565b60405161013991906113dd565b60405180910390f35b61014a61075e565b60405161015791906113f8565b60405180910390f35b61017a6004803603810190610175919061144c565b6107b5565b005b610196600480360381019061019191906114a5565b6108fa565b6040516101a391906110dc565b60405180910390f35b6101c660048036038101906101c191906114a5565b610bef565b005b60606001805480602002602001604051908101604052809291908181526020016000905b828210156103b3578382906000526020600020906003020160405180608001604052908160008201805461021f90611501565b80601f016020809104026020016040519081016040528092919081815260200182805461024b90611501565b80156102985780601f1061026d57610100808354040283529160200191610298565b820191906000526020600020905b81548152906001019060200180831161027b57829003601f168201915b505050505081526020016001820180546102b190611501565b80601f01602080910402602001604051908101604052809291908181526020018280546102dd90611501565b801561032a5780601f106102ff5761010080835404028352916020019161032a565b820191906000526020600020905b81548152906001019060200180831161030d57829003601f168201915b505050505081526020016002820160009054906101000a900460ff161515151581526020016002820160019054906101000a900473ffffffffffffffffffffffffffffffffffffffff1673ffffffffffffffffffffffffffffffffffffffff1673ffffffffffffffffffffffffffffffffffffffff1681525050815260200190600101906101ec565b50505050905090565b600160405180608001604052808481526020018381526020016000151581526020013373ffffffffffffffffffffffffffffffffffffffff168152509080600181540180825580915050600190039060005260206000209060030201600090919091909150600082015181600001908051906020019061043d929190610d02565b50602082015181600101908051906020019061045a929190610d02565b5060408201518160020160006101000a81548160ff02191690831515021790555060608201518160020160016101000a81548173ffffffffffffffffffffffffffffffffffffffff021916908373ffffffffffffffffffffffffffffffffffffffff16021790555050505050565b6104d061075e565b6104d957600080fd5b600160006104e79190610d88565b565b6104f161075e565b6104fa57600080fd5b600073ffffffffffffffffffffffffffffffffffffffff1660008054906101000a900473ffffffffffffffffffffffffffffffffffffffff1673ffffffffffffffffffffffffffffffffffffffff167f8be0079c531659141344cd1fd0a4f28419497f9722a3daafe3b4186f6b6457e060405160405180910390a360008060006101000a81548173ffffffffffffffffffffffffffffffffffffffff021916908373ffffffffffffffffffffffffffffffffffffffff160217905550565b600181815481106105c857600080fd5b90600052602060002090600302016000915090508060000180546105eb90611501565b80601f016020809104026020016040519081016040528092919081815260200182805461061790611501565b80156106645780601f1061063957610100808354040283529160200191610664565b820191906000526020600020905b81548152906001019060200180831161064757829003601f168201915b50505050509080600101805461067990611501565b80601f01602080910402602001604051908101604052809291908181526020018280546106a590611501565b80156106f25780601f106106c7576101008083540402835291602001916106f2565b820191906000526020600020905b8154815290600101906020018083116106d557829003601f168201915b5050505050908060020160009054906101000a900460ff16908060020160019054906101000a900473ffffffffffffffffffffffffffffffffffffffff16905084565b60008060009054906101000a900473ffffffffffffffffffffffffffffffffffffffff16905090565b60008060009054906101000a900473ffffffffffffffffffffffffffffffffffffffff1673ffffffffffffffffffffffffffffffffffffffff163373ffffffffffffffffffffffffffffffffffffffff1614905090565b8060ff16600181815481106107cd576107cc611532565b5b906000526020600020906003020160020160019054906101000a900473ffffffffffffffffffffffffffffffffffffffff1673ffffffffffffffffffffffffffffffffffffffff163373ffffffffffffffffffffffffffffffffffffffff161461083657600080fd5b60018260ff168154811061084d5761084c611532565b5b906000526020600020906003020160020160019054906101000a900473ffffffffffffffffffffffffffffffffffffffff1673ffffffffffffffffffffffffffffffffffffffff163373ffffffffffffffffffffffffffffffffffffffff16146108b657600080fd5b6001808360ff16815481106108ce576108cd611532565b5b906000526020600020906003020160020160006101000a81548160ff0219169083151502179055505050565b6060600060018054905067ffffffffffffffff81111561091d5761091c61111c565b5b60405190808252806020026020018201604052801561095657816020015b610943610dac565b81526020019060019003908161093b5790505b5090506000805b600180549050811015610be4576001818154811061097e5761097d611532565b5b906000526020600020906003020160020160019054906101000a900473ffffffffffffffffffffffffffffffffffffffff1673ffffffffffffffffffffffffffffffffffffffff168573ffffffffffffffffffffffffffffffffffffffff1603610bd157600181815481106109f6576109f5611532565b5b9060005260206000209060030201604051806080016040529081600082018054610a1f90611501565b80601f0160208091040260200160405190810160405280929190818152602001828054610a4b90611501565b8015610a985780601f10610a6d57610100808354040283529160200191610a98565b820191906000526020600020905b815481529060010190602001808311610a7b57829003601f168201915b50505050508152602001600182018054610ab190611501565b80601f0160208091040260200160405190810160405280929190818152602001828054610add90611501565b8015610b2a5780601f10610aff57610100808354040283529160200191610b2a565b820191906000526020600020905b815481529060010190602001808311610b0d57829003601f168201915b505050505081526020016002820160009054906101000a900460ff161515151581526020016002820160019054906101000a900473ffffffffffffffffffffffffffffffffffffffff1673ffffffffffffffffffffffffffffffffffffffff1673ffffffffffffffffffffffffffffffffffffffff1681525050838381518110610bb757610bb6611532565b5b60200260200101819052508180610bcd90611590565b9250505b8080610bdc90611590565b91505061095d565b508192505050919050565b610bf761075e565b610c0057600080fd5b610c0981610c0c565b50565b600073ffffffffffffffffffffffffffffffffffffffff168173ffffffffffffffffffffffffffffffffffffffff1603610c4557600080fd5b8073ffffffffffffffffffffffffffffffffffffffff1660008054906101000a900473ffffffffffffffffffffffffffffffffffffffff1673ffffffffffffffffffffffffffffffffffffffff167f8be0079c531659141344cd1fd0a4f28419497f9722a3daafe3b4186f6b6457e060405160405180910390a3806000806101000a81548173ffffffffffffffffffffffffffffffffffffffff021916908373ffffffffffffffffffffffffffffffffffffffff16021790555050565b828054610d0e90611501565b90600052602060002090601f016020900481019282610d305760008555610d77565b82601f10610d4957805160ff1916838001178555610d77565b82800160010185558215610d77579182015b82811115610d76578251825591602001919060010190610d5b565b5b509050610d849190610dec565b5090565b5080546000825560030290600052602060002090810190610da99190610e09565b50565b60405180608001604052806060815260200160608152602001600015158152602001600073ffffffffffffffffffffffffffffffffffffffff1681525090565b5b80821115610e05576000816000905550600101610ded565b5090565b5b80821115610e775760008082016000610e239190610e7b565b600182016000610e339190610e7b565b6002820160006101000a81549060ff02191690556002820160016101000a81549073ffffffffffffffffffffffffffffffffffffffff021916905550600301610e0a565b5090565b508054610e8790611501565b6000825580601f10610e995750610eb8565b601f016020900490600052602060002090810190610eb79190610dec565b5b50565b600081519050919050565b600082825260208201905092915050565b6000819050602082019050919050565b600081519050919050565b600082825260208201905092915050565b60005b83811015610f21578082015181840152602081019050610f06565b83811115610f30576000848401525b50505050565b6000601f19601f8301169050919050565b6000610f5282610ee7565b610f5c8185610ef2565b9350610f6c818560208601610f03565b610f7581610f36565b840191505092915050565b60008115159050919050565b610f9581610f80565b82525050565b600073ffffffffffffffffffffffffffffffffffffffff82169050919050565b6000610fc682610f9b565b9050919050565b610fd681610fbb565b82525050565b60006080830160008301518482036000860152610ff98282610f47565b915050602083015184820360208601526110138282610f47565b91505060408301516110286040860182610f8c565b50606083015161103b6060860182610fcd565b508091505092915050565b60006110528383610fdc565b905092915050565b6000602082019050919050565b600061107282610ebb565b61107c8185610ec6565b93508360208202850161108e85610ed7565b8060005b858110156110ca57848403895281516110ab8582611046565b94506110b68361105a565b925060208a01995050600181019050611092565b50829750879550505050505092915050565b600060208201905081810360008301526110f68184611067565b905092915050565b6000604051905090565b600080fd5b600080fd5b600080fd5b600080fd5b7f4e487b7100000000000000000000000000000000000000000000000000000000600052604160045260246000fd5b61115482610f36565b810181811067ffffffffffffffff821117156111735761117261111c565b5b80604052505050565b60006111866110fe565b9050611192828261114b565b919050565b600067ffffffffffffffff8211156111b2576111b161111c565b5b6111bb82610f36565b9050602081019050919050565b82818337600083830152505050565b60006111ea6111e584611197565b61117c565b90508281526020810184848401111561120657611205611117565b5b6112118482856111c8565b509392505050565b600082601f83011261122e5761122d611112565b5b813561123e8482602086016111d7565b91505092915050565b6000806040838503121561125e5761125d611108565b5b600083013567ffffffffffffffff81111561127c5761127b61110d565b5b61128885828601611219565b925050602083013567ffffffffffffffff8111156112a9576112a861110d565b5b6112b585828601611219565b9150509250929050565b6000819050919050565b6112d2816112bf565b81146112dd57600080fd5b50565b6000813590506112ef816112c9565b92915050565b60006020828403121561130b5761130a611108565b5b6000611319848285016112e0565b91505092915050565b600082825260208201905092915050565b600061133e82610ee7565b6113488185611322565b9350611358818560208601610f03565b61136181610f36565b840191505092915050565b61137581610f80565b82525050565b61138481610fbb565b82525050565b600060808201905081810360008301526113a48187611333565b905081810360208301526113b88186611333565b90506113c7604083018561136c565b6113d4606083018461137b565b95945050505050565b60006020820190506113f2600083018461137b565b92915050565b600060208201905061140d600083018461136c565b92915050565b600060ff82169050919050565b61142981611413565b811461143457600080fd5b50565b60008135905061144681611420565b92915050565b60006020828403121561146257611461611108565b5b600061147084828501611437565b91505092915050565b61148281610fbb565b811461148d57600080fd5b50565b60008135905061149f81611479565b92915050565b6000602082840312156114bb576114ba611108565b5b60006114c984828501611490565b91505092915050565b7f4e487b7100000000000000000000000000000000000000000000000000000000600052602260045260246000fd5b6000600282049050600182168061151957607f821691505b60208210810361152c5761152b6114d2565b5b50919050565b7f4e487b7100000000000000000000000000000000000000000000000000000000600052603260045260246000fd5b7f4e487b7100000000000000000000000000000000000000000000000000000000600052601160045260246000fd5b600061159b826112bf565b91507fffffffffffffffffffffffffffffffffffffffffffffffffffffffffffffffff82036115cd576115cc611561565b5b60018201905091905056fea2646970667358221220664956d82ce5f554123261c89725a60deead2bd43b77624a84afcca1c1de6cf164736f6c634300080d0033",
  "immutableReferences": {},
  "source": "pragma solidity ^0.8.0;\n\nimport \"./ownable.sol\";\n\ncontract ToDo is Ownable {\n  struct Task {\n    string description;\n    string user;\n    bool status;\n    address owner;\n  }\n\n  Task[] public tasks;\n\n  modifier onlyOwnerOf(uint _taskId) {\n    require(msg.sender == tasks[_taskId].owner);\n    _;\n  }\n\n  function createTask(string memory _description, string memory _user) public {\n    tasks.push(Task(_description, _user, false, msg.sender));\n  }\n\n  function checkTask(uint8 _id) public onlyOwnerOf(_id) {\n    require (msg.sender == tasks[_id].owner);\n    tasks[_id].status = true;\n  }\n\n  function cleanTasks() public onlyOwner {\n    delete tasks;\n  }\n  \n  function getTasks() public view returns(Task[] memory) {\n    return tasks;\n  }\n\n  function getTasksByOwner(address owner) public view returns(Task[] memory) {\n    Task[] memory result = new Task[](tasks.length);\n    uint counter = 0;\n    for (uint i = 0; i < tasks.length; i++) {\n      if (owner == tasks[i].owner) {\n        result[counter] = tasks[i];\n        counter++;\n      }\n    }\n\n    return result;\n  }\n\n  \n}",
  "sourcePath": "/home/hayek/proyectos_personales/todo_list_defi/src/contracts/ToDo.sol",
  "compiler": {
    "name": "solc",
    "version": "0.8.13+commit.abaa5c0e.Emscripten.clang"
  },
  "schemaVersion": "3.4.4",
  "updatedAt": "2022-04-08T21:58:52.850Z",
  "networkType": "ethereum",
  "devdoc": {
    "kind": "dev",
    "methods": {
      "isOwner()": {
        "returns": {
          "_0": "true if `msg.sender` is the owner of the contract."
        }
      },
      "owner()": {
        "returns": {
          "_0": "the address of the owner."
        }
      },
      "renounceOwnership()": {
        "details": "Allows the current owner to relinquish control of the contract."
      },
      "transferOwnership(address)": {
        "details": "Allows the current owner to transfer control of the contract to a newOwner.",
        "params": {
          "newOwner": "The address to transfer ownership to."
        }
      }
    },
    "version": 1
  },
  "userdoc": {
    "kind": "user",
    "methods": {
      "renounceOwnership()": {
        "notice": "Renouncing to ownership will leave the contract without an owner. It will not be possible to call the functions with the `onlyOwner` modifier anymore."
      }
    },
    "version": 1
  }
}