{
  "contractName": "ToDo",
  "abi": [
    {
      "anonymous": false,
      "inputs": [
        {
          "indexed": true,
          "internalType": "address",
          "name": "previousOwner",
          "type": "address"
        },
        {
          "indexed": true,
          "internalType": "address",
          "name": "newOwner",
          "type": "address"
        }
      ],
      "name": "OwnershipTransferred",
      "type": "event"
    },
    {
      "constant": true,
      "inputs": [],
      "name": "isOwner",
      "outputs": [
        {
          "internalType": "bool",
          "name": "",
          "type": "bool"
        }
      ],
      "payable": false,
      "stateMutability": "view",
      "type": "function"
    },
    {
      "constant": true,
      "inputs": [],
      "name": "owner",
      "outputs": [
        {
          "internalType": "address",
          "name": "",
          "type": "address"
        }
      ],
      "payable": false,
      "stateMutability": "view",
      "type": "function"
    },
    {
      "constant": false,
      "inputs": [],
      "name": "renounceOwnership",
      "outputs": [],
      "payable": false,
      "stateMutability": "nonpayable",
      "type": "function"
    },
    {
      "constant": true,
      "inputs": [
        {
          "internalType": "uint256",
          "name": "",
          "type": "uint256"
        }
      ],
      "name": "tasks",
      "outputs": [
        {
          "internalType": "string",
          "name": "description",
          "type": "string"
        },
        {
          "internalType": "string",
          "name": "user",
          "type": "string"
        },
        {
          "internalType": "bool",
          "name": "status",
          "type": "bool"
        },
        {
          "internalType": "address",
          "name": "owner",
          "type": "address"
        }
      ],
      "payable": false,
      "stateMutability": "view",
      "type": "function"
    },
    {
      "constant": false,
      "inputs": [
        {
          "internalType": "address",
          "name": "newOwner",
          "type": "address"
        }
      ],
      "name": "transferOwnership",
      "outputs": [],
      "payable": false,
      "stateMutability": "nonpayable",
      "type": "function"
    },
    {
      "constant": false,
      "inputs": [
        {
          "internalType": "string",
          "name": "_description",
          "type": "string"
        },
        {
          "internalType": "string",
          "name": "_user",
          "type": "string"
        }
      ],
      "name": "createTask",
      "outputs": [],
      "payable": false,
      "stateMutability": "nonpayable",
      "type": "function"
    },
    {
      "constant": false,
      "inputs": [
        {
          "internalType": "uint8",
          "name": "_id",
          "type": "uint8"
        }
      ],
      "name": "checkTask",
      "outputs": [],
      "payable": false,
      "stateMutability": "nonpayable",
      "type": "function"
    },
    {
      "constant": false,
      "inputs": [],
      "name": "cleanTasks",
      "outputs": [],
      "payable": false,
      "stateMutability": "nonpayable",
      "type": "function"
    },
    {
      "constant": true,
      "inputs": [],
      "name": "getTasks",
      "outputs": [
        {
          "components": [
            {
              "internalType": "string",
              "name": "description",
              "type": "string"
            },
            {
              "internalType": "string",
              "name": "user",
              "type": "string"
            },
            {
              "internalType": "bool",
              "name": "status",
              "type": "bool"
            },
            {
              "internalType": "address",
              "name": "owner",
              "type": "address"
            }
          ],
          "internalType": "struct ToDo.Task[]",
          "name": "",
          "type": "tuple[]"
        }
      ],
      "payable": false,
      "stateMutability": "view",
      "type": "function"
    },
    {
      "constant": true,
      "inputs": [
        {
          "internalType": "address",
          "name": "owner",
          "type": "address"
        }
      ],
      "name": "getTasksByOwner",
      "outputs": [
        {
          "components": [
            {
              "internalType": "string",
              "name": "description",
              "type": "string"
            },
            {
              "internalType": "string",
              "name": "user",
              "type": "string"
            },
            {
              "internalType": "bool",
              "name": "status",
              "type": "bool"
            },
            {
              "internalType": "address",
              "name": "owner",
              "type": "address"
            }
          ],
          "internalType": "struct ToDo.Task[]",
          "name": "",
          "type": "tuple[]"
        }
      ],
      "payable": false,
      "stateMutability": "view",
      "type": "function"
    }
  ],
  "bytecode": "0x6080604052336000806101000a81548173ffffffffffffffffffffffffffffffffffffffff021916908373ffffffffffffffffffffffffffffffffffffffff1602179055506000809054906101000a900473ffffffffffffffffffffffffffffffffffffffff1673ffffffffffffffffffffffffffffffffffffffff16600073ffffffffffffffffffffffffffffffffffffffff167f8be0079c531659141344cd1fd0a4f28419497f9722a3daafe3b4186f6b6457e060405160405180910390a361149d806100cf6000396000f3fe608060405234801561001057600080fd5b506004361061009e5760003560e01c80638da5cb5b116100665780638da5cb5b146101245780638f32d59b14610142578063e65141e414610160578063f0f39ce41461017c578063f2fde38b146101ac5761009e565b806304a87e38146100a3578063292a4585146100c15780632e99a9e5146100dd578063715018a6146100e75780638d977672146100f1575b600080fd5b6100ab6101c8565b6040516100b8919061121e565b60405180910390f35b6100db60048036036100d69190810190610fa4565b6103dc565b005b6100e56104eb565b005b6100ef61050c565b005b61010b60048036036101069190810190611010565b6105dc565b60405161011b949392919061125b565b60405180910390f35b61012c610776565b6040516101399190611203565b60405180910390f35b61014a61079f565b6040516101579190611240565b60405180910390f35b61017a60048036036101759190810190611039565b6107f6565b005b61019660048036036101919190810190610f7b565b610926565b6040516101a3919061121e565b60405180910390f35b6101c660048036036101c19190810190610f7b565b610c08565b005b60606001805480602002602001604051908101604052809291908181526020016000905b828210156103d35783829060005260206000209060030201604051806080016040529081600082018054600181600116156101000203166002900480601f0160208091040260200160405190810160405280929190818152602001828054600181600116156101000203166002900480156102a85780601f1061027d576101008083540402835291602001916102a8565b820191906000526020600020905b81548152906001019060200180831161028b57829003601f168201915b50505050508152602001600182018054600181600116156101000203166002900480601f01602080910402602001604051908101604052809291908181526020018280546001816001161561010002031660029004801561034a5780601f1061031f5761010080835404028352916020019161034a565b820191906000526020600020905b81548152906001019060200180831161032d57829003601f168201915b505050505081526020016002820160009054906101000a900460ff161515151581526020016002820160019054906101000a900473ffffffffffffffffffffffffffffffffffffffff1673ffffffffffffffffffffffffffffffffffffffff1673ffffffffffffffffffffffffffffffffffffffff1681525050815260200190600101906101ec565b50505050905090565b600160405180608001604052808481526020018381526020016000151581526020013373ffffffffffffffffffffffffffffffffffffffff1681525090806001815401808255809150509060018203906000526020600020906003020160009091929091909150600082015181600001908051906020019061045f929190610d1d565b50602082015181600101908051906020019061047c929190610d1d565b5060408201518160020160006101000a81548160ff02191690831515021790555060608201518160020160016101000a81548173ffffffffffffffffffffffffffffffffffffffff021916908373ffffffffffffffffffffffffffffffffffffffff1602179055505050505050565b6104f361079f565b6104fc57600080fd5b6001600061050a9190610d9d565b565b61051461079f565b61051d57600080fd5b600073ffffffffffffffffffffffffffffffffffffffff166000809054906101000a900473ffffffffffffffffffffffffffffffffffffffff1673ffffffffffffffffffffffffffffffffffffffff167f8be0079c531659141344cd1fd0a4f28419497f9722a3daafe3b4186f6b6457e060405160405180910390a360008060006101000a81548173ffffffffffffffffffffffffffffffffffffffff021916908373ffffffffffffffffffffffffffffffffffffffff160217905550565b600181815481106105e957fe5b9060005260206000209060030201600091509050806000018054600181600116156101000203166002900480601f0160208091040260200160405190810160405280929190818152602001828054600181600116156101000203166002900480156106955780601f1061066a57610100808354040283529160200191610695565b820191906000526020600020905b81548152906001019060200180831161067857829003601f168201915b505050505090806001018054600181600116156101000203166002900480601f0160208091040260200160405190810160405280929190818152602001828054600181600116156101000203166002900480156107335780601f1061070857610100808354040283529160200191610733565b820191906000526020600020905b81548152906001019060200180831161071657829003601f168201915b5050505050908060020160009054906101000a900460ff16908060020160019054906101000a900473ffffffffffffffffffffffffffffffffffffffff16905084565b60008060009054906101000a900473ffffffffffffffffffffffffffffffffffffffff16905090565b60008060009054906101000a900473ffffffffffffffffffffffffffffffffffffffff1673ffffffffffffffffffffffffffffffffffffffff163373ffffffffffffffffffffffffffffffffffffffff1614905090565b8060ff166001818154811061080757fe5b906000526020600020906003020160020160019054906101000a900473ffffffffffffffffffffffffffffffffffffffff1673ffffffffffffffffffffffffffffffffffffffff163373ffffffffffffffffffffffffffffffffffffffff161461087057600080fd5b60018260ff168154811061088057fe5b906000526020600020906003020160020160019054906101000a900473ffffffffffffffffffffffffffffffffffffffff1673ffffffffffffffffffffffffffffffffffffffff163373ffffffffffffffffffffffffffffffffffffffff16146108e957600080fd5b6001808360ff16815481106108fa57fe5b906000526020600020906003020160020160006101000a81548160ff0219169083151502179055505050565b60608060018054905060405190808252806020026020018201604052801561096857816020015b610955610dc1565b81526020019060019003908161094d5790505b509050600080905060008090505b600180549050811015610bfd576001818154811061099057fe5b906000526020600020906003020160020160019054906101000a900473ffffffffffffffffffffffffffffffffffffffff1673ffffffffffffffffffffffffffffffffffffffff168573ffffffffffffffffffffffffffffffffffffffff161415610bf05760018181548110610a0257fe5b9060005260206000209060030201604051806080016040529081600082018054600181600116156101000203166002900480601f016020809104026020016040519081016040528092919081815260200182805460018160011615610100020316600290048015610ab45780601f10610a8957610100808354040283529160200191610ab4565b820191906000526020600020905b815481529060010190602001808311610a9757829003601f168201915b50505050508152602001600182018054600181600116156101000203166002900480601f016020809104026020016040519081016040528092919081815260200182805460018160011615610100020316600290048015610b565780601f10610b2b57610100808354040283529160200191610b56565b820191906000526020600020905b815481529060010190602001808311610b3957829003601f168201915b505050505081526020016002820160009054906101000a900460ff161515151581526020016002820160019054906101000a900473ffffffffffffffffffffffffffffffffffffffff1673ffffffffffffffffffffffffffffffffffffffff1673ffffffffffffffffffffffffffffffffffffffff1681525050838381518110610bdc57fe5b602002602001018190525081806001019250505b8080600101915050610976565b508192505050919050565b610c1061079f565b610c1957600080fd5b610c2281610c25565b50565b600073ffffffffffffffffffffffffffffffffffffffff168173ffffffffffffffffffffffffffffffffffffffff161415610c5f57600080fd5b8073ffffffffffffffffffffffffffffffffffffffff166000809054906101000a900473ffffffffffffffffffffffffffffffffffffffff1673ffffffffffffffffffffffffffffffffffffffff167f8be0079c531659141344cd1fd0a4f28419497f9722a3daafe3b4186f6b6457e060405160405180910390a3806000806101000a81548173ffffffffffffffffffffffffffffffffffffffff021916908373ffffffffffffffffffffffffffffffffffffffff16021790555050565b828054600181600116156101000203166002900490600052602060002090601f016020900481019282601f10610d5e57805160ff1916838001178555610d8c565b82800160010185558215610d8c579182015b82811115610d8b578251825591602001919060010190610d70565b5b509050610d999190610e01565b5090565b5080546000825560030290600052602060002090810190610dbe9190610e26565b50565b60405180608001604052806060815260200160608152602001600015158152602001600073ffffffffffffffffffffffffffffffffffffffff1681525090565b610e2391905b80821115610e1f576000816000905550600101610e07565b5090565b90565b610e9d91905b80821115610e995760008082016000610e459190610ea0565b600182016000610e559190610ea0565b6002820160006101000a81549060ff02191690556002820160016101000a81549073ffffffffffffffffffffffffffffffffffffffff021916905550600301610e2c565b5090565b90565b50805460018160011615610100020316600290046000825580601f10610ec65750610ee5565b601f016020900490600052602060002090810190610ee49190610e01565b5b50565b600081359050610ef781611415565b92915050565b600082601f830112610f0e57600080fd5b8135610f21610f1c826112db565b6112ae565b91508082526020830160208301858383011115610f3d57600080fd5b610f488382846113c2565b50505092915050565b600081359050610f608161142c565b92915050565b600081359050610f7581611443565b92915050565b600060208284031215610f8d57600080fd5b6000610f9b84828501610ee8565b91505092915050565b60008060408385031215610fb757600080fd5b600083013567ffffffffffffffff811115610fd157600080fd5b610fdd85828601610efd565b925050602083013567ffffffffffffffff811115610ffa57600080fd5b61100685828601610efd565b9150509250929050565b60006020828403121561102257600080fd5b600061103084828501610f51565b91505092915050565b60006020828403121561104b57600080fd5b600061105984828501610f66565b91505092915050565b600061106e8383611199565b905092915050565b61107f8161136d565b82525050565b61108e8161136d565b82525050565b600061109f82611317565b6110a9818561133a565b9350836020820285016110bb85611307565b8060005b858110156110f757848403895281516110d88582611062565b94506110e38361132d565b925060208a019950506001810190506110bf565b50829750879550505050505092915050565b6111128161137f565b82525050565b6111218161137f565b82525050565b600061113282611322565b61113c818561134b565b935061114c8185602086016113d1565b61115581611404565b840191505092915050565b600061116b82611322565b611175818561135c565b93506111858185602086016113d1565b61118e81611404565b840191505092915050565b600060808301600083015184820360008601526111b68282611127565b915050602083015184820360208601526111d08282611127565b91505060408301516111e56040860182611109565b5060608301516111f86060860182611076565b508091505092915050565b60006020820190506112186000830184611085565b92915050565b600060208201905081810360008301526112388184611094565b905092915050565b60006020820190506112556000830184611118565b92915050565b600060808201905081810360008301526112758187611160565b905081810360208301526112898186611160565b90506112986040830185611118565b6112a56060830184611085565b95945050505050565b6000604051905081810181811067ffffffffffffffff821117156112d157600080fd5b8060405250919050565b600067ffffffffffffffff8211156112f257600080fd5b601f19601f8301169050602081019050919050565b6000819050602082019050919050565b600081519050919050565b600081519050919050565b6000602082019050919050565b600082825260208201905092915050565b600082825260208201905092915050565b600082825260208201905092915050565b60006113788261138b565b9050919050565b60008115159050919050565b600073ffffffffffffffffffffffffffffffffffffffff82169050919050565b6000819050919050565b600060ff82169050919050565b82818337600083830152505050565b60005b838110156113ef5780820151818401526020810190506113d4565b838111156113fe576000848401525b50505050565b6000601f19601f8301169050919050565b61141e8161136d565b811461142957600080fd5b50565b611435816113ab565b811461144057600080fd5b50565b61144c816113b5565b811461145757600080fd5b5056fea365627a7a7231582096e1fb5ad8e91e757c3ef50eca58ad117df85e9626e98a8459cf0c53f0682c7d6c6578706572696d656e74616cf564736f6c63430005100040",
  "source": "pragma experimental ABIEncoderV2;\n\nimport \"./ownable.sol\";\n\ncontract ToDo is Ownable {\n  struct Task {\n    string description;\n    string user;\n    bool status;\n    address owner;\n  }\n\n  Task[] public tasks;\n\n  modifier onlyOwnerOf(uint _taskId) {\n    require(msg.sender == tasks[_taskId].owner);\n    _;\n  }\n\n  function createTask(string memory _description, string memory _user) public {\n    tasks.push(Task(_description, _user, false, msg.sender));\n  }\n\n  function checkTask(uint8 _id) public onlyOwnerOf(_id) {\n    require (msg.sender == tasks[_id].owner);\n    tasks[_id].status = true;\n  }\n\n  function cleanTasks() public onlyOwner {\n    delete tasks;\n  }\n  \n  function getTasks() public view returns(Task[] memory) {\n    return tasks;\n  }\n\n  function getTasksByOwner(address owner) public view returns(Task[] memory) {\n    Task[] memory result = new Task[](tasks.length);\n    uint counter = 0;\n    for (uint i = 0; i < tasks.length; i++) {\n      if (owner == tasks[i].owner) {\n        result[counter] = tasks[i];\n        counter++;\n      }\n    }\n\n    return result;\n  }\n\n  \n}",
  "sourcePath": "/home/hayek/proyectos_personales/todo_list_defi/src/contracts/ToDo.sol",
  "compiler": {
    "name": "solc",
    "version": "0.5.16+commit.9c3226ce.Emscripten.clang"
  },
  "schemaVersion": "3.4.4",
  "updatedAt": "2022-04-08T20:51:55.677Z",
  "networkType": "ethereum",
  "devdoc": {
    "methods": {
      "isOwner()": {
        "return": "true if `msg.sender` is the owner of the contract."
      },
      "owner()": {
        "return": "the address of the owner."
      },
      "renounceOwnership()": {
        "details": "Allows the current owner to relinquish control of the contract."
      },
      "transferOwnership(address)": {
        "details": "Allows the current owner to transfer control of the contract to a newOwner.",
        "params": {
          "newOwner": "The address to transfer ownership to."
        }
      }
    }
  },
  "userdoc": {
    "methods": {
      "renounceOwnership()": {
        "notice": "Renouncing to ownership will leave the contract without an owner. It will not be possible to call the functions with the `onlyOwner` modifier anymore."
      }
    }
  }
}