{
  "contractName": "ToDo",
  "abi": [
    {
      "constant": true,
      "inputs": [
        {
          "internalType": "uint256",
          "name": "",
          "type": "uint256"
        }
      ],
      "name": "tasks",
      "outputs": [
        {
          "internalType": "string",
          "name": "description",
          "type": "string"
        },
        {
          "internalType": "string",
          "name": "user",
          "type": "string"
        },
        {
          "internalType": "bool",
          "name": "status",
          "type": "bool"
        }
      ],
      "payable": false,
      "stateMutability": "view",
      "type": "function"
    },
    {
      "constant": false,
      "inputs": [
        {
          "internalType": "string",
          "name": "_description",
          "type": "string"
        },
        {
          "internalType": "string",
          "name": "_user",
          "type": "string"
        }
      ],
      "name": "createTask",
      "outputs": [],
      "payable": false,
      "stateMutability": "nonpayable",
      "type": "function"
    },
    {
      "constant": false,
      "inputs": [
        {
          "internalType": "uint8",
          "name": "_id",
          "type": "uint8"
        }
      ],
      "name": "checkTask",
      "outputs": [],
      "payable": false,
      "stateMutability": "nonpayable",
      "type": "function"
    },
    {
      "constant": false,
      "inputs": [],
      "name": "cleanTasks",
      "outputs": [],
      "payable": false,
      "stateMutability": "nonpayable",
      "type": "function"
    },
    {
      "constant": true,
      "inputs": [],
      "name": "getTasks",
      "outputs": [
        {
          "components": [
            {
              "internalType": "string",
              "name": "description",
              "type": "string"
            },
            {
              "internalType": "string",
              "name": "user",
              "type": "string"
            },
            {
              "internalType": "bool",
              "name": "status",
              "type": "bool"
            }
          ],
          "internalType": "struct ToDo.Task[]",
          "name": "",
          "type": "tuple[]"
        }
      ],
      "payable": false,
      "stateMutability": "view",
      "type": "function"
    }
  ],
  "bytecode": "0x608060405234801561001057600080fd5b50610b35806100206000396000f3fe608060405234801561001057600080fd5b50600436106100575760003560e01c806304a87e381461005c578063292a45851461007a5780632e99a9e5146100965780638d977672146100a0578063e65141e4146100d2575b600080fd5b6100646100ee565b6040516100719190610928565b60405180910390f35b610094600480360361008f91908101906106fa565b6102ac565b005b61009e610358565b005b6100ba60048036036100b59190810190610766565b610367565b6040516100c99392919061094a565b60405180910390f35b6100ec60048036036100e7919081019061078f565b6104db565b005b60606000805480602002602001604051908101604052809291908181526020016000905b828210156102a35783829060005260206000209060030201604051806060016040529081600082018054600181600116156101000203166002900480601f0160208091040260200160405190810160405280929190818152602001828054600181600116156101000203166002900480156101ce5780601f106101a3576101008083540402835291602001916101ce565b820191906000526020600020905b8154815290600101906020018083116101b157829003601f168201915b50505050508152602001600182018054600181600116156101000203166002900480601f0160208091040260200160405190810160405280929190818152602001828054600181600116156101000203166002900480156102705780601f1061024557610100808354040283529160200191610270565b820191906000526020600020905b81548152906001019060200180831161025357829003601f168201915b505050505081526020016002820160009054906101000a900460ff16151515158152505081526020019060010190610112565b50505050905090565b6000604051806060016040528084815260200183815260200160001515815250908060018154018082558091505090600182039060005260206000209060030201600090919290919091506000820151816000019080519060200190610313929190610518565b506020820151816001019080519060200190610330929190610518565b5060408201518160020160006101000a81548160ff0219169083151502179055505050505050565b6000806103659190610598565b565b6000818154811061037457fe5b9060005260206000209060030201600091509050806000018054600181600116156101000203166002900480601f0160208091040260200160405190810160405280929190818152602001828054600181600116156101000203166002900480156104205780601f106103f557610100808354040283529160200191610420565b820191906000526020600020905b81548152906001019060200180831161040357829003601f168201915b505050505090806001018054600181600116156101000203166002900480601f0160208091040260200160405190810160405280929190818152602001828054600181600116156101000203166002900480156104be5780601f10610493576101008083540402835291602001916104be565b820191906000526020600020905b8154815290600101906020018083116104a157829003601f168201915b5050505050908060020160009054906101000a900460ff16905083565b600160008260ff16815481106104ed57fe5b906000526020600020906003020160020160006101000a81548160ff02191690831515021790555050565b828054600181600116156101000203166002900490600052602060002090601f016020900481019282601f1061055957805160ff1916838001178555610587565b82800160010185558215610587579182015b8281111561058657825182559160200191906001019061056b565b5b50905061059491906105bc565b5090565b50805460008255600302906000526020600020908101906105b991906105e1565b50565b6105de91905b808211156105da5760008160009055506001016105c2565b5090565b90565b61063191905b8082111561062d57600080820160006106009190610634565b6001820160006106109190610634565b6002820160006101000a81549060ff0219169055506003016105e7565b5090565b90565b50805460018160011615610100020316600290046000825580601f1061065a5750610679565b601f01602090049060005260206000209081019061067891906105bc565b5b50565b600082601f83011261068d57600080fd5b81356106a061069b826109bc565b61098f565b915080825260208301602083018583830111156106bc57600080fd5b6106c7838284610a71565b50505092915050565b6000813590506106df81610ac4565b92915050565b6000813590506106f481610adb565b92915050565b6000806040838503121561070d57600080fd5b600083013567ffffffffffffffff81111561072757600080fd5b6107338582860161067c565b925050602083013567ffffffffffffffff81111561075057600080fd5b61075c8582860161067c565b9150509250929050565b60006020828403121561077857600080fd5b6000610786848285016106d0565b91505092915050565b6000602082840312156107a157600080fd5b60006107af848285016106e5565b91505092915050565b60006107c483836108d1565b905092915050565b60006107d7826109f8565b6107e18185610a1b565b9350836020820285016107f3856109e8565b8060005b8581101561082f578484038952815161081085826107b8565b945061081b83610a0e565b925060208a019950506001810190506107f7565b50829750879550505050505092915050565b61084a81610a4e565b82525050565b61085981610a4e565b82525050565b600061086a82610a03565b6108748185610a2c565b9350610884818560208601610a80565b61088d81610ab3565b840191505092915050565b60006108a382610a03565b6108ad8185610a3d565b93506108bd818560208601610a80565b6108c681610ab3565b840191505092915050565b600060608301600083015184820360008601526108ee828261085f565b91505060208301518482036020860152610908828261085f565b915050604083015161091d6040860182610841565b508091505092915050565b6000602082019050818103600083015261094281846107cc565b905092915050565b600060608201905081810360008301526109648186610898565b905081810360208301526109788185610898565b90506109876040830184610850565b949350505050565b6000604051905081810181811067ffffffffffffffff821117156109b257600080fd5b8060405250919050565b600067ffffffffffffffff8211156109d357600080fd5b601f19601f8301169050602081019050919050565b6000819050602082019050919050565b600081519050919050565b600081519050919050565b6000602082019050919050565b600082825260208201905092915050565b600082825260208201905092915050565b600082825260208201905092915050565b60008115159050919050565b6000819050919050565b600060ff82169050919050565b82818337600083830152505050565b60005b83811015610a9e578082015181840152602081019050610a83565b83811115610aad576000848401525b50505050565b6000601f19601f8301169050919050565b610acd81610a5a565b8114610ad857600080fd5b50565b610ae481610a64565b8114610aef57600080fd5b5056fea365627a7a723158203fd1d597b196e103e4b5903e6de777ad368e1bd31700bdcc3006eb48d92e617b6c6578706572696d656e74616cf564736f6c63430005100040",
  "source": "pragma experimental ABIEncoderV2;\n\ncontract ToDo {\n  struct Task {\n    string description;\n    string user;\n    bool status;\n  }\n\n  Task[] public tasks;\n\n  function createTask(string memory _description, string memory _user) public {\n    tasks.push(Task(_description, _user, false));\n  }\n\n  function checkTask(uint8 _id) public {\n    tasks[_id].status = true;\n  }\n\n  function cleanTasks() public {\n    delete tasks;\n  }\n  \n  function getTasks() public view returns(Task[] memory) {\n    return tasks;\n  }\n}",
  "sourcePath": "/home/hayek/proyectos_personales/todo_list_defi/src/contracts/ToDo.sol",
  "compiler": {
    "name": "solc",
    "version": "0.5.16+commit.9c3226ce.Emscripten.clang"
  },
  "schemaVersion": "3.4.4",
  "updatedAt": "2022-04-06T02:10:47.342Z",
  "networkType": "ethereum",
  "devdoc": {
    "methods": {}
  },
  "userdoc": {
    "methods": {}
  }
}