{
  "contractName": "ToDo",
  "abi": [
    {
      "constant": true,
      "inputs": [
        {
          "internalType": "uint256",
          "name": "",
          "type": "uint256"
        }
      ],
      "name": "tasks",
      "outputs": [
        {
          "internalType": "string",
          "name": "description",
          "type": "string"
        },
        {
          "internalType": "string",
          "name": "user",
          "type": "string"
        },
        {
          "internalType": "bool",
          "name": "status",
          "type": "bool"
        },
        {
          "internalType": "address",
          "name": "owner",
          "type": "address"
        }
      ],
      "payable": false,
      "stateMutability": "view",
      "type": "function"
    },
    {
      "constant": false,
      "inputs": [
        {
          "internalType": "string",
          "name": "_description",
          "type": "string"
        },
        {
          "internalType": "string",
          "name": "_user",
          "type": "string"
        }
      ],
      "name": "createTask",
      "outputs": [],
      "payable": false,
      "stateMutability": "nonpayable",
      "type": "function"
    },
    {
      "constant": false,
      "inputs": [
        {
          "internalType": "uint8",
          "name": "_id",
          "type": "uint8"
        }
      ],
      "name": "checkTask",
      "outputs": [],
      "payable": false,
      "stateMutability": "nonpayable",
      "type": "function"
    },
    {
      "constant": false,
      "inputs": [],
      "name": "cleanTasks",
      "outputs": [],
      "payable": false,
      "stateMutability": "nonpayable",
      "type": "function"
    },
    {
      "constant": true,
      "inputs": [],
      "name": "getTasks",
      "outputs": [
        {
          "components": [
            {
              "internalType": "string",
              "name": "description",
              "type": "string"
            },
            {
              "internalType": "string",
              "name": "user",
              "type": "string"
            },
            {
              "internalType": "bool",
              "name": "status",
              "type": "bool"
            },
            {
              "internalType": "address",
              "name": "owner",
              "type": "address"
            }
          ],
          "internalType": "struct ToDo.Task[]",
          "name": "",
          "type": "tuple[]"
        }
      ],
      "payable": false,
      "stateMutability": "view",
      "type": "function"
    },
    {
      "constant": true,
      "inputs": [],
      "name": "getTasksByOwner",
      "outputs": [
        {
          "components": [
            {
              "internalType": "string",
              "name": "description",
              "type": "string"
            },
            {
              "internalType": "string",
              "name": "user",
              "type": "string"
            },
            {
              "internalType": "bool",
              "name": "status",
              "type": "bool"
            },
            {
              "internalType": "address",
              "name": "owner",
              "type": "address"
            }
          ],
          "internalType": "struct ToDo.Task[]",
          "name": "",
          "type": "tuple[]"
        }
      ],
      "payable": false,
      "stateMutability": "view",
      "type": "function"
    }
  ],
  "bytecode": "0x608060405234801561001057600080fd5b50610f75806100206000396000f3fe608060405234801561001057600080fd5b50600436106100625760003560e01c806304a87e3814610067578063292a4585146100855780632e99a9e5146100a15780638d977672146100ab578063e46ff648146100de578063e65141e4146100fc575b600080fd5b61006f610118565b60405161007c9190610d28565b60405180910390f35b61009f600480360361009a9190810190610ac9565b61032c565b005b6100a961043b565b005b6100c560048036036100c09190810190610b35565b61044a565b6040516100d59493929190610d4a565b60405180910390f35b6100e66105e4565b6040516100f39190610d28565b60405180910390f35b61011660048036036101119190810190610b5e565b610843565b005b60606000805480602002602001604051908101604052809291908181526020016000905b828210156103235783829060005260206000209060030201604051806080016040529081600082018054600181600116156101000203166002900480601f0160208091040260200160405190810160405280929190818152602001828054600181600116156101000203166002900480156101f85780601f106101cd576101008083540402835291602001916101f8565b820191906000526020600020905b8154815290600101906020018083116101db57829003601f168201915b50505050508152602001600182018054600181600116156101000203166002900480601f01602080910402602001604051908101604052809291908181526020018280546001816001161561010002031660029004801561029a5780601f1061026f5761010080835404028352916020019161029a565b820191906000526020600020905b81548152906001019060200180831161027d57829003601f168201915b505050505081526020016002820160009054906101000a900460ff161515151581526020016002820160019054906101000a900473ffffffffffffffffffffffffffffffffffffffff1673ffffffffffffffffffffffffffffffffffffffff1673ffffffffffffffffffffffffffffffffffffffff16815250508152602001906001019061013c565b50505050905090565b600060405180608001604052808481526020018381526020016000151581526020013373ffffffffffffffffffffffffffffffffffffffff168152509080600181540180825580915050906001820390600052602060002090600302016000909192909190915060008201518160000190805190602001906103af929190610880565b5060208201518160010190805190602001906103cc929190610880565b5060408201518160020160006101000a81548160ff02191690831515021790555060608201518160020160016101000a81548173ffffffffffffffffffffffffffffffffffffffff021916908373ffffffffffffffffffffffffffffffffffffffff1602179055505050505050565b6000806104489190610900565b565b6000818154811061045757fe5b9060005260206000209060030201600091509050806000018054600181600116156101000203166002900480601f0160208091040260200160405190810160405280929190818152602001828054600181600116156101000203166002900480156105035780601f106104d857610100808354040283529160200191610503565b820191906000526020600020905b8154815290600101906020018083116104e657829003601f168201915b505050505090806001018054600181600116156101000203166002900480601f0160208091040260200160405190810160405280929190818152602001828054600181600116156101000203166002900480156105a15780601f10610576576101008083540402835291602001916105a1565b820191906000526020600020905b81548152906001019060200180831161058457829003601f168201915b5050505050908060020160009054906101000a900460ff16908060020160019054906101000a900473ffffffffffffffffffffffffffffffffffffffff16905084565b60608060008054905060405190808252806020026020018201604052801561062657816020015b610613610924565b81526020019060019003908161060b5790505b50905060008090505b60008054905081101561083b576000818154811061064957fe5b9060005260206000209060030201604051806080016040529081600082018054600181600116156101000203166002900480601f0160208091040260200160405190810160405280929190818152602001828054600181600116156101000203166002900480156106fb5780601f106106d0576101008083540402835291602001916106fb565b820191906000526020600020905b8154815290600101906020018083116106de57829003601f168201915b50505050508152602001600182018054600181600116156101000203166002900480601f01602080910402602001604051908101604052809291908181526020018280546001816001161561010002031660029004801561079d5780601f106107725761010080835404028352916020019161079d565b820191906000526020600020905b81548152906001019060200180831161078057829003601f168201915b505050505081526020016002820160009054906101000a900460ff161515151581526020016002820160019054906101000a900473ffffffffffffffffffffffffffffffffffffffff1673ffffffffffffffffffffffffffffffffffffffff1673ffffffffffffffffffffffffffffffffffffffff168152505082828151811061082357fe5b6020026020010181905250808060010191505061062f565b508091505090565b600160008260ff168154811061085557fe5b906000526020600020906003020160020160006101000a81548160ff02191690831515021790555050565b828054600181600116156101000203166002900490600052602060002090601f016020900481019282601f106108c157805160ff19168380011785556108ef565b828001600101855582156108ef579182015b828111156108ee5782518255916020019190600101906108d3565b5b5090506108fc9190610964565b5090565b50805460008255600302906000526020600020908101906109219190610989565b50565b60405180608001604052806060815260200160608152602001600015158152602001600073ffffffffffffffffffffffffffffffffffffffff1681525090565b61098691905b8082111561098257600081600090555060010161096a565b5090565b90565b610a0091905b808211156109fc57600080820160006109a89190610a03565b6001820160006109b89190610a03565b6002820160006101000a81549060ff02191690556002820160016101000a81549073ffffffffffffffffffffffffffffffffffffffff02191690555060030161098f565b5090565b90565b50805460018160011615610100020316600290046000825580601f10610a295750610a48565b601f016020900490600052602060002090810190610a479190610964565b5b50565b600082601f830112610a5c57600080fd5b8135610a6f610a6a82610dca565b610d9d565b91508082526020830160208301858383011115610a8b57600080fd5b610a96838284610eb1565b50505092915050565b600081359050610aae81610f04565b92915050565b600081359050610ac381610f1b565b92915050565b60008060408385031215610adc57600080fd5b600083013567ffffffffffffffff811115610af657600080fd5b610b0285828601610a4b565b925050602083013567ffffffffffffffff811115610b1f57600080fd5b610b2b85828601610a4b565b9150509250929050565b600060208284031215610b4757600080fd5b6000610b5584828501610a9f565b91505092915050565b600060208284031215610b7057600080fd5b6000610b7e84828501610ab4565b91505092915050565b6000610b938383610cbe565b905092915050565b610ba481610e5c565b82525050565b610bb381610e5c565b82525050565b6000610bc482610e06565b610bce8185610e29565b935083602082028501610be085610df6565b8060005b85811015610c1c5784840389528151610bfd8582610b87565b9450610c0883610e1c565b925060208a01995050600181019050610be4565b50829750879550505050505092915050565b610c3781610e6e565b82525050565b610c4681610e6e565b82525050565b6000610c5782610e11565b610c618185610e3a565b9350610c71818560208601610ec0565b610c7a81610ef3565b840191505092915050565b6000610c9082610e11565b610c9a8185610e4b565b9350610caa818560208601610ec0565b610cb381610ef3565b840191505092915050565b60006080830160008301518482036000860152610cdb8282610c4c565b91505060208301518482036020860152610cf58282610c4c565b9150506040830151610d0a6040860182610c2e565b506060830151610d1d6060860182610b9b565b508091505092915050565b60006020820190508181036000830152610d428184610bb9565b905092915050565b60006080820190508181036000830152610d648187610c85565b90508181036020830152610d788186610c85565b9050610d876040830185610c3d565b610d946060830184610baa565b95945050505050565b6000604051905081810181811067ffffffffffffffff82111715610dc057600080fd5b8060405250919050565b600067ffffffffffffffff821115610de157600080fd5b601f19601f8301169050602081019050919050565b6000819050602082019050919050565b600081519050919050565b600081519050919050565b6000602082019050919050565b600082825260208201905092915050565b600082825260208201905092915050565b600082825260208201905092915050565b6000610e6782610e7a565b9050919050565b60008115159050919050565b600073ffffffffffffffffffffffffffffffffffffffff82169050919050565b6000819050919050565b600060ff82169050919050565b82818337600083830152505050565b60005b83811015610ede578082015181840152602081019050610ec3565b83811115610eed576000848401525b50505050565b6000601f19601f8301169050919050565b610f0d81610e9a565b8114610f1857600080fd5b50565b610f2481610ea4565b8114610f2f57600080fd5b5056fea365627a7a72315820c6c68775cee0344e052f9fd38a8cfe8b2c5609fc70afd0c96f69143aba0a18f06c6578706572696d656e74616cf564736f6c63430005100040",
  "source": "pragma experimental ABIEncoderV2;\n\ncontract ToDo {\n  struct Task {\n    string description;\n    string user;\n    bool status;\n    address owner;\n  }\n\n  Task[] public tasks;\n\n  function createTask(string memory _description, string memory _user) public {\n    tasks.push(Task(_description, _user, false, msg.sender));\n  }\n\n  function checkTask(uint8 _id) public {\n    tasks[_id].status = true;\n  }\n\n  function cleanTasks() public {\n    delete tasks;\n  }\n  \n  function getTasks() public view returns(Task[] memory) {\n    return tasks;\n  }\n\n  function getTasksByOwner() external view returns(Task[] memory) {\n    Task[] memory result = new Task[](tasks.length);\n    //uint counter = 0;\n    for (uint i = 0; i < tasks.length; i++) {\n      //if (owner == tasks[i].owner) {\n        result[i] = tasks[i];\n        //Task memory result = tasks[i];\n\n\n        //result.push(tasks[i]);\n        //counter++;\n      //}\n    }\n\n    return result;\n  }\n\n  \n}",
  "sourcePath": "/home/hayek/proyectos_personales/todo_list_defi/src/contracts/ToDo.sol",
  "compiler": {
    "name": "solc",
    "version": "0.5.16+commit.9c3226ce.Emscripten.clang"
  },
  "schemaVersion": "3.4.4",
  "updatedAt": "2022-04-06T20:58:31.318Z",
  "networkType": "ethereum",
  "devdoc": {
    "methods": {}
  },
  "userdoc": {
    "methods": {}
  }
}